:1000000071C0000007C20000DAC10000ADC10000ED
:1000100080C1000053C1000026C10000F9C00000EB
:10002000CCC000007EC000007CC000007AC0000090
:1000300078C0000076C0000074C0000072C00000EC
:1000400070C000006EC000006CC000006AC00000FC
:1000500068C0000066C0000064C0000064C000000A
:1000600060C000005EC000005CC000005AC000001C
:1000700058C0000056C0000054C0000052C000002C
:1000800050C000004EC000004CC000004AC000003C
:1000900048C0000046C0000044C0000042C000004C
:1000A00040C000003EC000003CC000003AC000005C
:1000B00038C0000036C0000034C0000032C000006C
:1000C00030C000002EC000002CC000002AC000007C
:1000D00028C0000026C0000024C0000022C000008C
:1000E00020C0000011241FBECFEFD1E2DEBFCDBF84
:1000F00000E00CBF12E0A0E0B2E0ECE5F5E000E0CB
:100100000BBF02C007900D92A031B107D9F722E0D2
:10011000A0E1B2E001C01D92AD31B207E1F7A5D177
:100120001BC26ECF08951F920F920FB60F9211242B
:100130002F933F938F939F93AF93BF938091190217
:1001400090911A02A0911B02B0911C0230911802EA
:1001500023E0230F2D3720F40196A11DB11D05C00A
:1001600026E8230F0296A11DB11D2093180280934B
:10017000190290931A02A0931B02B0931C02809163
:10018000140290911502A0911602B09117020196E7
:10019000A11DB11D8093140290931502A093160225
:1001A000B0931702BF91AF919F918F913F912F9183
:1001B0000F900FBE0F901F9018951F920F920FB6C1
:1001C0000F9211240BB60F922F933F934F935F938F
:1001D0006F937F938F939F93AF93BF93EF93FF930F
:1001E000E0910E02F0910F021995FF91EF91BF91EE
:1001F000AF919F918F917F916F915F914F913F91BF
:100200002F910F900BBE0F900FBE0F901F9018955F
:100210001F920F920FB60F9211240BB60F922F93CD
:100220003F934F935F936F937F938F939F93AF937E
:10023000BF93EF93FF93E0910C02F0910D0219959B
:10024000FF91EF91BF91AF919F918F917F916F91AE
:100250005F914F913F912F910F900BBE0F900FBE6A
:100260000F901F9018951F920F920FB60F921124A6
:100270000BB60F922F933F934F935F936F937F93A0
:100280008F939F93AF93BF93EF93FF93E0910202FD
:10029000F09103021995FF91EF91BF91AF919F915A
:1002A0008F917F916F915F914F913F912F910F901F
:1002B0000BBE0F900FBE0F901F9018951F920F92BC
:1002C0000FB60F9211240BB60F922F933F934F93BB
:1002D0005F936F937F938F939F93AF93BF93EF93AE
:1002E000FF93E0910002F09101021995FF91EF91C7
:1002F000BF91AF919F918F917F916F915F914F913E
:100300003F912F910F900BBE0F900FBE0F901F903B
:1003100018951F920F920FB60F9211240BB60F92E1
:100320002F933F934F935F936F937F938F939F93FD
:10033000AF93BF93EF93FF93E0910A02F0910B020A
:100340001995FF91EF91BF91AF919F918F917F91FF
:100350006F915F914F913F912F910F900BBE0F9036
:100360000FBE0F901F9018951F920F920FB60F920D
:1003700011240BB60F922F933F934F935F936F937C
:100380007F938F939F93AF93BF93EF93FF93E091EE
:100390000802F09109021995FF91EF91BF91AF9179
:1003A0009F918F917F916F915F914F913F912F918D
:1003B0000F900BBE0F900FBE0F901F9018951F92BD
:1003C0000F920FB60F9211240BB60F922F933F93FB
:1003D0004F935F936F937F938F939F93AF93BF934D
:1003E000EF93FF93E0910602F09107021995FF91B8
:1003F000EF91BF91AF919F918F917F916F915F919D
:100400004F913F912F910F900BBE0F900FBE0F9009
:100410001F9018951F920F920FB60F9211240BB6D2
:100420000F922F933F934F935F936F937F938F938D
:100430009F93AF93BF93EF93FF93E0910402F091EA
:1004400005021995FF91EF91BF91AF919F918F9107
:100450007F916F915F914F913F912F910F900BBEC4
:100460000F900FBE0F901F901895789484B58260FE
:1004700084BD84B5816084BD85B5826085BD85B548
:10048000816085BD80916E00816080936E001092C6
:100490008100809181008260809381008091810041
:1004A00081608093810080918000816080938000D2
:1004B0008091B10084608093B1008091B000816030
:1004C0008093B00080919100826080939100809130
:1004D0009100816080939100809190008160809371
:1004E00090008091A10082608093A1008091A10082
:1004F00081608093A1008091A00081608093A00022
:10050000809121018260809321018091210181608D
:10051000809321018091200181608093200180914E
:100520007A00846080937A0080917A008260809360
:100530007A0080917A00816080937A0080917A00BD
:10054000806880937A001092C100C0E0D0E02097CC
:0C055000F1F30E940000FBCFF894FFCFF5
:10055C0092009200920092009200920092009200FF
:00000001FF
