:1000000019C1000045C1000043C1000041C100000A
:100010003FC100003DC100003BC1000039C10000EC
:1000200037C1000035C1000033C1000031C10000FC
:100030002FC100002DC100002BC1000029C100000C
:1000400027C1000025C1000023C1000021C100001C
:100050001FC100001DC100001BC100008BC40000B7
:1000600017C1000015C1000013C1000011C100003C
:100070000FC100000DC100000BC1000009C100004C
:1000800007C1000005C1000003C1000001C100005C
:10009000E4C40000B9C40000FBC00000F9C00000C7
:1000A000F7C00000F5C00000F3C00000F1C0000080
:1000B000EFC00000EDC00000EBC00000E9C0000090
:1000C000E7C00000E5C00000E3C00000E1C00000A0
:1000D000DFC00000DDC00000DBC00000D9C00000B0
:1000E000D7C000009601990188018C019001D001D0
:1000F0009D01A101A701AB01AF01B501B901BD018E
:10010000D001C301C701CB0109020E0213021D0277
:100110002702A0023102390241024B0255025F025E
:100120006E027802A00282028C02960200000A0B84
:1001300002090C0D0E080703040100000000000076
:1001400000000000000000000000000000000000AF
:10015000000000000000000012111000000000006C
:10016000000000000000000000000000000000008F
:10017000000000002200250028002B002E00310086
:10018000340002010000050108010B0100002100FC
:10019000240027002A002D00300033000101000058
:1001A000040107010A0105050505070508080808F7
:1001B000020202020A0A08080404040401010101FF
:1001C00001010101030303030303030304070707FA
:1001D0000C0C0C0C0C0C0C0C02020202060606069F
:1001E000060606060B0B0B0B0B0B0B0B010210206C
:1001F000200808102040102040800201020108045D
:1002000002010102040810204080804020100804F0
:100210000201800402018040201008040201080449
:10022000020101020408102040800102040810208D
:1002300040804D0611241FBECFEFD1E2DEBFCDBFFF
:1002400000E00CBF12E0A0E0B2E0EEE5FDE000E06F
:100250000BBF02C007900D92A632B107D9F722E07A
:10026000A6E2B2E001C01D92AD3CB207E1F711E099
:10027000CAE1D1E000E005C021970109802FFE010D
:100280004CD5C931D10780E00807B1F71CD465C54A
:10029000B7CE90E0FC01E451FE4F2491FC01EA55F9
:1002A000FE4F8491882399F090E0880F991FFC01FC
:1002B000E457FE4FA591B491FC01EE58FE4F859195
:1002C00094918FB7F894EC91E22BEC938FBF089543
:1002D000362F90E0FC01E45DFE4F4491FC01E451B7
:1002E000FE4F2491FC01EA55FE4F9491992309F4A5
:1002F0006AC0442309F454C050E0FA013197E23156
:10030000F10508F04DC08827EE58FF4F8F4F05C507
:10031000809180008F7707C0809180008F7D03C01F
:1003200080918000877F809380003AC084B58F776A
:1003300002C084B58F7D84BD33C08091B0008F77BB
:1003400003C08091B0008F7D8093B00029C0809160
:1003500090008F7707C0809190008F7D03C08091BF
:100360009000877F809390001BC08091A0008F77C2
:1003700007C08091A0008F7D03C08091A000877F7F
:100380008093A0000DC0809120018F7707C08091DD
:1003900020018F7D03C080912001877F8093200101
:1003A000E92FF0E0EE0FFF1FEE58FE4FA591B4913C
:1003B0008FB7F894EC91311103C020952E2301C022
:1003C0002E2B2C938FBF08951F93CF93DF93182F5D
:1003D000EB015FDF209711F460E004C0CF3FD1054F
:1003E00031F461E0812FDF91CF911F9171CFE12F27
:1003F000F0E0E45DFE4FE4914E2F50E0FA013197BA
:10040000E231F10508F09CC08827EC57FF4F8F4F71
:1004100084C484B5806884BDC7BD97C084B580623C
:1004200084BDC8BD92C080918000806880938000A8
:10043000D0938900C093880088C08091800080623A
:1004400080938000D0938B00C0938A007EC08091FF
:100450008000886080938000D0938D00C0938C00D2
:1004600074C08091B00080688093B000C093B300E6
:100470006CC08091B00080628093B000C093B400E3
:1004800064C080919000806880939000D093990020
:10049000C09398005AC08091900080628093900031
:1004A000D0939B00C0939A0050C0809190008860C8
:1004B00080939000D0939D00C0939C0046C0809193
:1004C000A00080688093A0008091A0008F7B809323
:1004D000A000D093A900C093A80037C08091A000CD
:1004E00080628093A000D093AB00C093AA002DC07F
:1004F0008091A00088608093A000D093AD00C0934D
:10050000AC0023C080912001806880932001D093AB
:100510002901C093280119C0809120018062809335
:100520002001D0932B01C0932A010FC0809120019C
:10053000886080932001D0932D01C0932C0105C0C9
:10054000C038D1050CF04DCF47CFDF91CF911F912F
:1005500008953FB7F8948091C9029091CA02A09182
:10056000CB02B091CC0226B5A89B05C02F3F19F055
:100570000196A11DB11D3FBFBA2FA92F982F882723
:10058000820F911DA11DB11DBC01CD0142E0660F7E
:10059000771F881F991F4A95D1F708958F929F92D0
:1005A000AF92BF92CF92DF92EF92FF926B017C01EC
:1005B000D0DF4B015C01C114D104E104F104E9F086
:1005C000C8DFDC01CB0188199909AA09BB09883E5B
:1005D0009340A105B10578F321E0C21AD108E108E2
:1005E000F10888EE880E83E0981EA11CB11CC1148E
:1005F000D104E104F10421F7DECFFF90EF90DF900A
:10060000CF90BF90AF909F908F900895CF92DF9240
:10061000EF92FF920F931F93CF93DF936C017A01B8
:100620008B01C0E0D0E0CE15DF0589F0D8016D91D7
:100630008D01D601ED91FC910190F081E02DC60174
:100640001995892B11F47E0102C02196ECCFC701C8
:10065000DF91CF911F910F91FF90EF90DF90CF909E
:100660000895089580E090E00895FC01538D448D35
:10067000252F30E0842F90E0821B930B541710F04D
:10068000CF96089501970895FC01918D828D98175A
:1006900061F0828DDF01A80FB11D5D968C91928D66
:1006A0009F5F9F73928F90E008958FEF9FEF089563
:1006B000FC01918D828D981731F0828DE80FF11D2C
:1006C000858D90E008958FEF9FEF0895FC01918D47
:1006D000228D892F90E0805C9F4F821B91098F7340
:1006E0009927089587E292E0F1DF21E0892B09F450
:1006F00020E0822F0895FC01848DDF01A80FB11D39
:10070000A35ABF4F2C91848D90E001968F73992747
:10071000848FA689B7892C93A089B1898C91806434
:100720008C93938D848D981306C00288F389E02DF5
:1007300080818F7D80830895EF92FF920F931F93A6
:10074000CF93DF93EC0181E0888F9B8D8C8D981384
:1007500005C0E889F989808185FD23C0F62E0B8DBF
:1007600010E00F5F1F4F0F731127E02E8C8DE812E2
:100770000BC00FB607FCFACFE889F989808185FFA5
:10078000F5CFCE01B8DFF2CF8B8DFE01E80FF11D62
:10079000E35AFF4FF0820B8FEA89FB8980818062E8
:1007A00007C0EE89FF896083E889F98980818064C8
:1007B000808381E090E0DF91CF911F910F91FF90B6
:1007C000EF900895CF93DF93EC01888D8823C1F0DB
:1007D000EA89FB89808185FD05C0A889B9898C914A
:1007E00086FD0EC00FB607FCF5CF808185FFF2CFE6
:1007F000A889B9898C9185FFEDCFCE017CDFE8CF48
:10080000DF91CF91089580E090E0892B41F080E066
:1008100090E0892B21F00E940000811120C080E02F
:1008200090E0892B19F05EDF81111CC080E090E020
:10083000892B41F080E090E0892B21F00E9400009C
:10084000811113C080E090E0892BA1F080E090E05E
:10085000892B81F00E94000081110AC008950E9436
:100860000000DDCF0E940000E1CF0E940000EACF2F
:100870000C940000089560E089E02ADD89E009DD3C
:1008800060E089E025DD60E08AE022DD8AE001DDCC
:1008900060E08AE01DDD60E087E01ADD87E0F9DCDA
:1008A00060E087E015DD60E088E012DD88E0F1DCE3
:1008B00060E088E00DCD1F93CF93DF93EC01809132
:1008C0002602811104C081E080932602D4DFD7FF85
:1008D00005C0D195C195D10911E001C010E0C13921
:1008E00081E0D80714F0C0E9D1E023E32C9FC001D8
:1008F0002D9F900D112460E570E0FCD189E064DD4E
:10090000112311F061E001C060E087E0DF91CF9139
:100910001F91DECC1F93CF93DF93EC0180912602D1
:10092000811104C081E080932602A5DFD7FF05C0B6
:10093000D195C195D10911E001C010E0C13981E024
:10094000D80714F0C0E9D1E023E32C9FC0012D9F0C
:10095000900D112460E570E0CDD18AE035DD1123E2
:1009600011F061E001C060E088E0DF91CF911F915C
:10097000AFCCEFD11F920F920FB60F9211242F938D
:100980003F938F939F93AF93BF938091C5029091B4
:10099000C602A091C702B091C8023091C40223E000
:1009A000230F2D3720F40196A11DB11D05C026E8A7
:1009B000230F0296A11DB11D2093C4028093C5028E
:1009C0009093C602A093C702B093C8028091C90257
:1009D0009091CA02A091CB02B091CC020196A11DC8
:1009E000B11D8093C9029093CA02A093CB02B09329
:1009F000CC02BF91AF919F918F913F912F910F901A
:100A00000FBE0F901F9018951F920F920FB60F9266
:100A100011240BB60F922F933F934F935F936F93D5
:100A20007F938F939F93AF93BF93EF93FF9387E24F
:100A300092E061DEFF91EF91BF91AF919F918F9115
:100A40007F916F915F914F913F912F910F900BBECE
:100A50000F900FBE0F901F9018951F920F920FB618
:100A60000F9211240BB60F922F938F939F93EF93B6
:100A7000FF93E0913702F09138028081E0913D02CE
:100A8000F0913E0282FD12C09081809140028F5F02
:100A90008F7320914102821751F0E0914002F0E003
:100AA000E95DFD4F958F8093400201C08081FF91E9
:100AB000EF919F918F912F910F900BBE0F900FBED2
:100AC0000F901F901895789484B5826084BD84B58A
:100AD000816084BD85B5826085BD85B5816085BD39
:100AE00080916E00816080936E00109281008091F1
:100AF0008100826080938100809181008160809379
:100B00008100809180008160809380008091B1009D
:100B100084608093B1008091B00081608093B000C8
:100B2000809191008260809391008091910081601A
:100B300080939100809190008160809390008091DB
:100B4000A10082608093A1008091A10081608093C8
:100B5000A1008091A00081608093A000809121017C
:100B60008260809321018091210181608093210125
:100B70008091200181608093200180917A008460BF
:100B800080937A0080917A00826080937A008091CD
:100B90007A00816080937A0080917A0080688093E7
:100BA0007A001092C10068E873E180E090E0F6DC22
:100BB000E0913702F091380282E08083E0913302C5
:100BC000F09134021082E0913502F09136028FEC00
:100BD000808310923F02E0913B02F0913C0286E05C
:100BE0008083E0913902F0913A02808180618083B4
:100BF000E0913902F0913A02808188608083E0912F
:100C00003902F0913A02808180688083E091390254
:100C1000F0913A0280818F7D808342E150E062E171
:100C200072E087E292E0F2DC8AEF90E044DE8AEF45
:100C300090E070DE68EE73E080E090E0AFDC86E983
:100C400090E039DE8AE69FEF65DE68EE73E080E0D3
:100C500090E0A4DC8AE69FEF2EDE86E990E05ADE83
:100C600068EE73E080E090E099DC8CE99FEF23DE92
:100C70008CE99FEF4FDE68EE73E080E090E08EDC61
:100C800080E090E018DE80E090E044DE68EB7BE0FE
:100C900080E090E083DCB7DDFECFE7E2F2E0138294
:100CA000128288EE93E0A0E0B0E084839583A6836F
:100CB000B78384E092E0918380838DEC90E0958708
:100CC00084878CEC90E09787868788EC90E0918B06
:100CD000808B89EC90E0938B828B8AEC90E0958BF3
:100CE000848B8EEC90E0978B868B118E128E138EF8
:100CF000148E089597FB072E16F4009406D077FD06
:100D000008D013D007FC05D03EF4909581959F4FF5
:100D10000895709561957F4F0895EE0FFF1F881F0E
:100D20008BBF0790F691E02D1994AA1BBB1B51E1D4
:100D300007C0AA1FBB1FA617B70710F0A61BB70B4B
:100D4000881F991F5A95A9F780959095BC01CD01F0
:0E0D5000089581E090E0F89400C0F894FFCF81
:100D5E00000000009C0306033503E2036603440310
:100D6E005803426F6E6A6F757220497465722072F5
:060D7E006F626F740000BB
:00000001FF
