:1000000018C1000023C50000F6C40000C9C40000E8
:100010009CC400006FC4000042C4000015C400006E
:10002000E8C3000025C1000023C1000021C1000079
:100030001FC100001DC100001BC1000019C100004C
:1000400017C1000015C1000013C1000011C100005C
:100050000FC100000DC100000BC1000080C30000F3
:1000600007C1000005C1000003C1000001C100007C
:10007000FFC00000FDC00000FBC00000F9C0000090
:10008000F7C00000F5C00000F3C00000F1C00000A0
:10009000EFC00000EDC00000EBC00000E9C00000B0
:1000A000E7C00000E5C00000E3C00000E1C00000C0
:1000B000DFC00000DDC00000DBC00000D9C00000D0
:1000C000D7C00000D5C00000D3C00000D1C00000E0
:1000D000CFC00000CDC00000CBC00000C9C00000F0
:1000E000C7C0000067016A0159015D016101A101FA
:1000F0006E01720178017C01800186018A018E0106
:10010000A101940198019C0117021C0221022B02FB
:100110003502AE023F0247024F02590263026D02EE
:100120007C028602AE0290029A02A4020000210024
:10013000240027002A002D003000330001010000B8
:10014000040107010A0100002200250028002B00FD
:100150002E003100340002010000050108010B01EE
:1001600005050505070508080808020202020A0A33
:100170000808040404040101010101010101030351
:10018000030303030303040707070C0C0C0C0C0CFC
:100190000C0C0202020206060606060606060B0BF9
:1001A0000B0B0B0B0B0B010210202008081020403A
:1001B000102040800201020108040201010204082B
:1001C00010204080804020100804020180040201B9
:1001D0008040201008040201080402010102040802
:1001E00010204080010204081020408000000A0B0B
:1001F00002090C0D0E0807030401000000000000B6
:1002000000000000000000000000000000000000EE
:1002100000000000000000001211100000000000AB
:1002200000000000000000000000000000000000CE
:10023000000011241FBECFEFD1E2DEBFCDBF00E032
:100240000CBF12E0A0E0B2E0E8EDFCE000E00BBF84
:1002500002C007900D92A031B107D9F722E0A0E1CA
:10026000B2E001C01D92AE31B207E1F71AD432C537
:10027000C7CE362F90E0FC01E451FE4F4491FC01C3
:10028000EA55FE4F2491FC01E05AFE4F94919923C8
:1002900009F46AC0442309F454C050E0FA013197CC
:1002A000E231F10508F04DC08827EE58FF4F8F4F1F
:1002B000F5C4809180008F7707C0809180008F7D8A
:1002C00003C080918000877F809380003AC084B50E
:1002D0008F7702C084B58F7D84BD33C08091B0001C
:1002E0008F7703C08091B0008F7D8093B00029C0CC
:1002F000809190008F7707C0809190008F7D03C020
:1003000080919000877F809390001BC08091A00017
:100310008F7707C08091A0008F7D03C08091A000DF
:10032000877F8093A0000DC0809120018F7707C048
:10033000809120018F7D03C080912001877F809371
:100340002001E92FF0E0EE0FFF1FEA5BFE4FA591C1
:10035000B4918FB7F894EC91311103C020952E23FE
:1003600001C02E2B2C938FBF0895CF93DF9390E085
:10037000FC01EA55FE4F2491FC01E05AFE4F8491A6
:10038000882361F190E0880F991FFC01E45DFE4F26
:10039000C591D491FC01EA5BFE4FA591B491611126
:1003A00009C09FB7F8948881209582238883EC91B7
:1003B0002E230BC0623061F49FB7F8943881822FEE
:1003C000809583238883EC912E2B2C939FBF06C0AE
:1003D0008FB7F894E8812E2B28838FBFDF91CF91C0
:1003E00008951F93CF93DF93182FEB0161E0BDDFDA
:1003F000209711F460E004C0CF3FD10531F461E0F3
:10040000812FDF91CF911F9134CFE12FF0E0E451A4
:10041000FE4FE4914E2F50E0FA013197E231F105A1
:1004200008F09CC08827EC57FF4F8F4F37C484B526
:10043000806884BDC7BD97C084B5806284BDC8BDD7
:1004400092C080918000806880938000D093890062
:10045000C093880088C08091800080628093800073
:10046000D0938B00C0938A007EC08091800088600A
:1004700080938000D0938D00C0938C0074C08091D5
:10048000B00080688093B000C093B3006CC08091CE
:10049000B00080628093B000C093B40064C08091CB
:1004A0009000806880939000D0939900C09398004A
:1004B0005AC080919000806280939000D0939B00FE
:1004C000C0939A0050C08091900088608093900003
:1004D000D0939D00C0939C0046C08091A00080688E
:1004E0008093A0008091A0008F7B8093A000D09388
:1004F000A900C093A80037C08091A00080628093BB
:10050000A000D093AB00C093AA002DC08091A000A2
:1005100088608093A000D093AD00C093AC0023C04E
:1005200080912001806880932001D0932901C0939D
:10053000280119C080912001806280932001D0930E
:100540002B01C0932A010FC0809120018860809305
:100550002001D0932D01C0932C0105C0C038D105D6
:100560000CF04DCF47CFDF91CF911F9108953FB74A
:10057000F89480911A0290911B02A0911C02B091F4
:100580001D0226B5A89B05C02F3F19F00196A11D9D
:10059000B11D3FBFBA2FA92F982F8827820F911D19
:1005A000A11DB11DBC01CD0142E0660F771F881F60
:1005B000991F4A95D1F708958F929F92AF92BF925B
:1005C000CF92DF92EF92FF926B017C01D0DF4B0163
:1005D0005C01C114D104E104F104E9F0C8DFDC01DD
:1005E000CB0188199909AA09BB09883E9340A10546
:1005F000B10578F321E0C21AD108E108F10888EECC
:10060000880E83E0981EA11CB11CC114D104E10422
:10061000F10421F7DECFFF90EF90DF90CF90BF90F5
:10062000AF909F908F900895F894809113029091CD
:100630001402019690931402809313027894089503
:10064000F8948091110290911202019690931202F7
:100650008093110278940895089560E089E009DE9E
:1006600061E089E082DE60E089E003DE60E08AE04C
:1006700000DE61E08AE079DE60E08AE0FADD60E0D9
:1006800087E0F7DD61E087E070DE60E087E0F1DDC4
:1006900060E088E0EEDD61E088E067DE60E088E051
:1006A000E8CD1F93CF93DF93EC018091100281116D
:1006B00004C081E080931002D0DFD7FF05C0D19540
:1006C000C195D10911E001C010E0C13981E0D8071E
:1006D00014F0C0E9D1E023E32C9FC0012D9F900DC1
:1006E000112460E570E0C7D289E07BDE112311F0B0
:1006F00061E001C060E087E0DF91CF911F91B9CD4B
:100700001F93CF93DF93EC0180911002811104C0FD
:1007100081E080931002A1DFD7FF05C0D195C1957C
:10072000D10911E001C010E0C13981E0D80714F00F
:10073000C0E9D1E023E32C9FC0012D9F900D11242F
:1007400060E570E098D28AE04CDE112311F061E0A0
:1007500001C060E088E0DF91CF911F918ACD1F92A8
:100760000F920FB60F9211242F933F938F939F9365
:10077000AF93BF938091160290911702A091180237
:10078000B09119023091150223E0230F2D3720F488
:100790000196A11DB11D05C026E8230F0296A11DDB
:1007A000B11D209315028093160290931702A09317
:1007B0001802B093190280911A0290911B02A09125
:1007C0001C02B0911D020196A11DB11D80931A0259
:1007D00090931B02A0931C02B0931D02BF91AF9196
:1007E0009F918F913F912F910F900FBE0F901F906F
:1007F00018951F920F920FB60F9211240BB60F92FD
:100800002F933F934F935F936F937F938F939F9318
:10081000AF93BF93EF93FF93E0910E02F0910F021D
:100820001995FF91EF91BF91AF919F918F917F911A
:100830006F915F914F913F912F910F900BBE0F9051
:100840000FBE0F901F9018951F920F920FB60F9228
:1008500011240BB60F922F933F934F935F936F9397
:100860007F938F939F93AF93BF93EF93FF93E09109
:100870000C02F0910D021995FF91EF91BF91AF918C
:100880009F918F917F916F915F914F913F912F91A8
:100890000F900BBE0F900FBE0F901F9018951F92D8
:1008A0000F920FB60F9211240BB60F922F933F9316
:1008B0004F935F936F937F938F939F93AF93BF9368
:1008C000EF93FF93E0910202F09103021995FF91DB
:1008D000EF91BF91AF919F918F917F916F915F91B8
:1008E0004F913F912F910F900BBE0F900FBE0F9025
:1008F0001F9018951F920F920FB60F9211240BB6EE
:100900000F922F933F934F935F936F937F938F93A8
:100910009F93AF93BF93EF93FF93E0910002F09109
:1009200001021995FF91EF91BF91AF919F918F9126
:100930007F916F915F914F913F912F910F900BBEDF
:100940000F900FBE0F901F9018951F920F920FB629
:100950000F9211240BB60F922F933F934F935F93F7
:100960006F937F938F939F93AF93BF93EF93FF9377
:10097000E0910A02F0910B021995FF91EF91BF915E
:10098000AF919F918F917F916F915F914F913F9127
:100990002F910F900BBE0F900FBE0F901F901895C8
:1009A0001F920F920FB60F9211240BB60F922F9336
:1009B0003F934F935F936F937F938F939F93AF93E7
:1009C000BF93EF93FF93E0910802F091090219950C
:1009D000FF91EF91BF91AF919F918F917F916F9117
:1009E0005F914F913F912F910F900BBE0F900FBED3
:1009F0000F901F9018951F920F920FB60F9211240F
:100A00000BB60F922F933F934F935F936F937F9308
:100A10008F939F93AF93BF93EF93FF93E091060261
:100A2000F09107021995FF91EF91BF91AF919F91BE
:100A30008F917F916F915F914F913F912F910F9087
:100A40000BBE0F900FBE0F901F9018951F920F9224
:100A50000FB60F9211240BB60F922F933F934F9323
:100A60005F936F937F938F939F93AF93BF93EF9316
:100A7000FF93E0910402F09105021995FF91EF9127
:100A8000BF91AF919F918F917F916F915F914F91A6
:100A90003F912F910F900BBE0F900FBE0F901F90A4
:100AA0001895789484B5826084BD84B5816084BDD6
:100AB00085B5826085BD85B5816085BD80916E00FC
:100AC000816080936E00109281008091810082602D
:100AD000809381008091810081608093810080916A
:100AE00080008160809380008091B1008460809359
:100AF000B1008091B00081608093B000809191003E
:100B00008260809391008091910081608093910038
:100B1000809190008160809390008091A10082601C
:100B20008093A1008091A10081608093A1008091B9
:100B3000A00081608093A000809121018260809359
:100B40002101809121018160809321018091200108
:100B500081608093200180917A00846080937A0084
:100B600080917A00826080937A0080917A0081601F
:100B700080937A0080917A00806880937A00109246
:100B8000C10068EB7BE080E090E016DD88EC90E04F
:100B900088DD88EC90E0B4DD68EE73E080E090E002
:100BA0000BDD80E090E07DDD80E090E0A9DD62E09B
:100BB00082E0DBDB62E083E0D8DB1092140210926B
:100BC0001302109212021092110284E193E09093AA
:100BD00001028093000280916A008C7F8160809383
:100BE0006A00EC9A80E293E0909303028093020201
:100BF00080916A00837F846080936A00ED9AF89404
:100C0000809113029091140278948038914060F49E
:100C100084E690E046DD8CE99FEF72DD62E370E0F0
:100C200080E090E0C9DCEBCF80E090E03ADD80E04E
:100C300090E066DDEC988CE293E090930102809363
:100C40000002ED9890930302809302021092140226
:100C500010921302109212021092110280E090E0A2
:100C600020DD80E090E04CDDC0E0D0E02097F1F3A3
:100C70000E940000FBCF97FB072E16F4009406D0CD
:100C800077FD08D013D007FC05D03EF490958195F0
:100C90009F4F0895709561957F4F0895EE0FFF1F48
:100CA000881F8BBF0790F691E02D1994AA1BBB1BE0
:100CB00051E107C0AA1FBB1FA617B70710F0A61B5C
:100CC000B70B881F991F5A95A9F780959095BC017D
:080CD000CD010895F894FFCF57
:100CD8002C032C032C032C032C032C032C032C0394
:00000001FF
